{
  "_format": "hh-sol-artifact-1",
  "contractName": "Storage",
  "sourceName": "contracts/Storage.sol",
  "abi": [
    {
      "inputs": [
        {
          "internalType": "uint256",
          "name": "initialValue",
          "type": "uint256"
        }
      ],
      "stateMutability": "nonpayable",
      "type": "constructor"
    },
    {
      "inputs": [],
      "name": "AccessControlBadConfirmation",
      "type": "error"
    },
    {
      "inputs": [
        {
          "internalType": "address",
          "name": "account",
          "type": "address"
        },
        {
          "internalType": "bytes32",
          "name": "neededRole",
          "type": "bytes32"
        }
      ],
      "name": "AccessControlUnauthorizedAccount",
      "type": "error"
    },
    {
      "anonymous": false,
      "inputs": [
        {
          "indexed": true,
          "internalType": "bytes32",
          "name": "role",
          "type": "bytes32"
        },
        {
          "indexed": true,
          "internalType": "bytes32",
          "name": "previousAdminRole",
          "type": "bytes32"
        },
        {
          "indexed": true,
          "internalType": "bytes32",
          "name": "newAdminRole",
          "type": "bytes32"
        }
      ],
      "name": "RoleAdminChanged",
      "type": "event"
    },
    {
      "anonymous": false,
      "inputs": [
        {
          "indexed": true,
          "internalType": "bytes32",
          "name": "role",
          "type": "bytes32"
        },
        {
          "indexed": true,
          "internalType": "address",
          "name": "account",
          "type": "address"
        },
        {
          "indexed": true,
          "internalType": "address",
          "name": "sender",
          "type": "address"
        }
      ],
      "name": "RoleGranted",
      "type": "event"
    },
    {
      "anonymous": false,
      "inputs": [
        {
          "indexed": true,
          "internalType": "bytes32",
          "name": "role",
          "type": "bytes32"
        },
        {
          "indexed": true,
          "internalType": "address",
          "name": "account",
          "type": "address"
        },
        {
          "indexed": true,
          "internalType": "address",
          "name": "sender",
          "type": "address"
        }
      ],
      "name": "RoleRevoked",
      "type": "event"
    },
    {
      "anonymous": false,
      "inputs": [
        {
          "indexed": true,
          "internalType": "uint256",
          "name": "num",
          "type": "uint256"
        }
      ],
      "name": "Stored",
      "type": "event"
    },
    {
      "anonymous": false,
      "inputs": [
        {
          "indexed": true,
          "internalType": "address",
          "name": "from",
          "type": "address"
        },
        {
          "indexed": true,
          "internalType": "address",
          "name": "to",
          "type": "address"
        },
        {
          "indexed": false,
          "internalType": "string",
          "name": "message",
          "type": "string"
        }
      ],
      "name": "ThankYou",
      "type": "event"
    },
    {
      "inputs": [],
      "name": "DEFAULT_ADMIN_ROLE",
      "outputs": [
        {
          "internalType": "bytes32",
          "name": "",
          "type": "bytes32"
        }
      ],
      "stateMutability": "view",
      "type": "function"
    },
    {
      "inputs": [
        {
          "internalType": "bytes32",
          "name": "role",
          "type": "bytes32"
        }
      ],
      "name": "getRoleAdmin",
      "outputs": [
        {
          "internalType": "bytes32",
          "name": "",
          "type": "bytes32"
        }
      ],
      "stateMutability": "view",
      "type": "function"
    },
    {
      "inputs": [
        {
          "internalType": "bytes32",
          "name": "role",
          "type": "bytes32"
        },
        {
          "internalType": "uint256",
          "name": "index",
          "type": "uint256"
        }
      ],
      "name": "getRoleMember",
      "outputs": [
        {
          "internalType": "address",
          "name": "",
          "type": "address"
        }
      ],
      "stateMutability": "view",
      "type": "function"
    },
    {
      "inputs": [
        {
          "internalType": "bytes32",
          "name": "role",
          "type": "bytes32"
        }
      ],
      "name": "getRoleMemberCount",
      "outputs": [
        {
          "internalType": "uint256",
          "name": "",
          "type": "uint256"
        }
      ],
      "stateMutability": "view",
      "type": "function"
    },
    {
      "inputs": [
        {
          "internalType": "bytes32",
          "name": "role",
          "type": "bytes32"
        },
        {
          "internalType": "address",
          "name": "account",
          "type": "address"
        }
      ],
      "name": "grantRole",
      "outputs": [],
      "stateMutability": "nonpayable",
      "type": "function"
    },
    {
      "inputs": [
        {
          "internalType": "bytes32",
          "name": "role",
          "type": "bytes32"
        },
        {
          "internalType": "address",
          "name": "account",
          "type": "address"
        }
      ],
      "name": "hasRole",
      "outputs": [
        {
          "internalType": "bool",
          "name": "",
          "type": "bool"
        }
      ],
      "stateMutability": "view",
      "type": "function"
    },
    {
      "inputs": [],
      "name": "payMe",
      "outputs": [],
      "stateMutability": "payable",
      "type": "function"
    },
    {
      "inputs": [
        {
          "internalType": "bytes32",
          "name": "role",
          "type": "bytes32"
        },
        {
          "internalType": "address",
          "name": "callerConfirmation",
          "type": "address"
        }
      ],
      "name": "renounceRole",
      "outputs": [],
      "stateMutability": "nonpayable",
      "type": "function"
    },
    {
      "inputs": [],
      "name": "retrieve",
      "outputs": [
        {
          "internalType": "uint256",
          "name": "",
          "type": "uint256"
        }
      ],
      "stateMutability": "view",
      "type": "function"
    },
    {
      "inputs": [
        {
          "internalType": "bytes32",
          "name": "role",
          "type": "bytes32"
        },
        {
          "internalType": "address",
          "name": "account",
          "type": "address"
        }
      ],
      "name": "revokeRole",
      "outputs": [],
      "stateMutability": "nonpayable",
      "type": "function"
    },
    {
      "inputs": [
        {
          "internalType": "uint256",
          "name": "num",
          "type": "uint256"
        }
      ],
      "name": "store",
      "outputs": [],
      "stateMutability": "nonpayable",
      "type": "function"
    },
    {
      "inputs": [
        {
          "internalType": "bytes4",
          "name": "interfaceId",
          "type": "bytes4"
        }
      ],
      "name": "supportsInterface",
      "outputs": [
        {
          "internalType": "bool",
          "name": "",
          "type": "bool"
        }
      ],
      "stateMutability": "view",
      "type": "function"
    }
  ],
  "bytecode": "0x608060405234801561001057600080fd5b50604051610b10380380610b1083398101604081905261002f9161017c565b61003a600033610043565b50600255610195565b600080610050848461007b565b905080156100725760008481526001602052604090206100709084610125565b505b90505b92915050565b6000828152602081815260408083206001600160a01b038516845290915281205460ff1661011d576000838152602081815260408083206001600160a01b03861684529091529020805460ff191660011790556100d53390565b6001600160a01b0316826001600160a01b0316847f2f8788117e7eff1d82e926ec794901d17c78024a50270940304540a733656f0d60405160405180910390a4506001610075565b506000610075565b6000610072836001600160a01b038416600081815260018301602052604081205461011d57508154600181810184556000848152602080822090930184905584548482528286019093526040902091909155610075565b60006020828403121561018e57600080fd5b5051919050565b61096c806101a46000396000f3fe6080604052600436106100a75760003560e01c80639010d07c116100645780639010d07c1461019657806391d14854146101ce578063a217fddf146101ee578063ca15c87314610203578063d547741f14610223578063d997ccb31461024357600080fd5b806301ffc9a7146100ac578063248a9ca3146100e15780632e64cec11461011f5780632f2ff15d1461013457806336568abe146101565780636057361d14610176575b600080fd5b3480156100b857600080fd5b506100cc6100c736600461082d565b61024b565b60405190151581526020015b60405180910390f35b3480156100ed57600080fd5b506101116100fc366004610857565b60009081526020819052604090206001015490565b6040519081526020016100d8565b34801561012b57600080fd5b50600254610111565b34801561014057600080fd5b5061015461014f366004610870565b610276565b005b34801561016257600080fd5b50610154610171366004610870565b6102a1565b34801561018257600080fd5b50610154610191366004610857565b6102d9565b3480156101a257600080fd5b506101b66101b13660046108ac565b610315565b6040516001600160a01b0390911681526020016100d8565b3480156101da57600080fd5b506100cc6101e9366004610870565b610334565b3480156101fa57600080fd5b50610111600081565b34801561020f57600080fd5b5061011161021e366004610857565b61035d565b34801561022f57600080fd5b5061015461023e366004610870565b610374565b610154610399565b60006001600160e01b03198216635a05180f60e01b14806102705750610270826104ab565b92915050565b600082815260208190526040902060010154610291816104e0565b61029b83836104ed565b50505050565b6001600160a01b03811633146102ca5760405163334bd91960e11b815260040160405180910390fd5b6102d48282610522565b505050565b6102e48160026108e4565b60025560405181907fc6d8c0af6d21f291e7c359603aa97e0ed500f04db6e983b9fce75a91c6b8da6b90600090a250565b600082815260016020526040812061032d908361054f565b9392505050565b6000918252602082815260408084206001600160a01b0393909316845291905290205460ff1690565b60008181526001602052604081206102709061055b565b60008281526020819052604090206001015461038f816104e0565b61029b8383610522565b60006103a58180610315565b6001600160a01b03163460405160006040518083038185875af1925050503d80600081146103ef576040519150601f19603f3d011682016040523d82523d6000602084013e6103f4565b606091505b50509050806104415760405162461bcd60e51b81526020600482015260146024820152734661696c656420746f2073656e64206d6f6e657960601b60448201526064015b60405180910390fd5b3361044d600080610315565b6001600160a01b03167f7c3676b72a389bbe134f4d71be959e22331d009bfeb2c1d01cc7d97d97d705076040516104a0906020808252600890820152675468616e6b73212160c01b604082015260600190565b60405180910390a350565b60006001600160e01b03198216637965db0b60e01b148061027057506301ffc9a760e01b6001600160e01b0319831614610270565b6104ea8133610565565b50565b6000806104fa84846105a2565b9050801561032d57600084815260016020526040902061051a9084610634565b509392505050565b60008061052f8484610649565b9050801561032d57600084815260016020526040902061051a90846106b4565b600061032d83836106c9565b6000610270825490565b61056f8282610334565b61059e5760405163e2517d3f60e01b81526001600160a01b038216600482015260248101839052604401610438565b5050565b60006105ae8383610334565b61062c576000838152602081815260408083206001600160a01b03861684529091529020805460ff191660011790556105e43390565b6001600160a01b0316826001600160a01b0316847f2f8788117e7eff1d82e926ec794901d17c78024a50270940304540a733656f0d60405160405180910390a4506001610270565b506000610270565b600061032d836001600160a01b0384166106f3565b60006106558383610334565b1561062c576000838152602081815260408083206001600160a01b0386168085529252808320805460ff1916905551339286917ff6391f5c32d9c69d2a47ea670b442974b53935d1edc7fd64eb21e047a839171b9190a4506001610270565b600061032d836001600160a01b03841661073a565b60008260000182815481106106e0576106e06108f7565b9060005260206000200154905092915050565b600081815260018301602052604081205461062c57508154600181810184556000848152602080822090930184905584548482528286019093526040902091909155610270565b6000818152600183016020526040812054801561082357600061075e60018361090d565b85549091506000906107729060019061090d565b90508082146107d7576000866000018281548110610792576107926108f7565b90600052602060002001549050808760000184815481106107b5576107b56108f7565b6000918252602080832090910192909255918252600188019052604090208390555b85548690806107e8576107e8610920565b600190038181906000526020600020016000905590558560010160008681526020019081526020016000206000905560019350505050610270565b6000915050610270565b60006020828403121561083f57600080fd5b81356001600160e01b03198116811461032d57600080fd5b60006020828403121561086957600080fd5b5035919050565b6000806040838503121561088357600080fd5b8235915060208301356001600160a01b03811681146108a157600080fd5b809150509250929050565b600080604083850312156108bf57600080fd5b50508035926020909101359150565b634e487b7160e01b600052601160045260246000fd5b80820180821115610270576102706108ce565b634e487b7160e01b600052603260045260246000fd5b81810381811115610270576102706108ce565b634e487b7160e01b600052603160045260246000fdfea264697066735822122095468fb77d4acb5d89e82e98bb2e8726b3ee263ba4ea9a57a0cb6b0561e2493b64736f6c63430008140033",
  "linkReferences": {},
  "deployedLinkReferences": {}
}