{
  "_format": "hh-sol-artifact-1",
  "contractName": "StorageUpgr",
  "sourceName": "contracts/StorageUpgr.sol",
  "abi": [
    {
      "inputs": [],
      "name": "AccessControlBadConfirmation",
      "type": "error"
    },
    {
      "inputs": [
        {
          "internalType": "address",
          "name": "account",
          "type": "address"
        },
        {
          "internalType": "bytes32",
          "name": "neededRole",
          "type": "bytes32"
        }
      ],
      "name": "AccessControlUnauthorizedAccount",
      "type": "error"
    },
    {
      "inputs": [
        {
          "internalType": "address",
          "name": "target",
          "type": "address"
        }
      ],
      "name": "AddressEmptyCode",
      "type": "error"
    },
    {
      "inputs": [
        {
          "internalType": "address",
          "name": "implementation",
          "type": "address"
        }
      ],
      "name": "ERC1967InvalidImplementation",
      "type": "error"
    },
    {
      "inputs": [],
      "name": "ERC1967NonPayable",
      "type": "error"
    },
    {
      "inputs": [],
      "name": "FailedInnerCall",
      "type": "error"
    },
    {
      "inputs": [],
      "name": "InvalidInitialization",
      "type": "error"
    },
    {
      "inputs": [],
      "name": "NotInitializing",
      "type": "error"
    },
    {
      "inputs": [],
      "name": "UUPSUnauthorizedCallContext",
      "type": "error"
    },
    {
      "inputs": [
        {
          "internalType": "bytes32",
          "name": "slot",
          "type": "bytes32"
        }
      ],
      "name": "UUPSUnsupportedProxiableUUID",
      "type": "error"
    },
    {
      "anonymous": false,
      "inputs": [
        {
          "indexed": false,
          "internalType": "uint64",
          "name": "version",
          "type": "uint64"
        }
      ],
      "name": "Initialized",
      "type": "event"
    },
    {
      "anonymous": false,
      "inputs": [
        {
          "indexed": true,
          "internalType": "bytes32",
          "name": "role",
          "type": "bytes32"
        },
        {
          "indexed": true,
          "internalType": "bytes32",
          "name": "previousAdminRole",
          "type": "bytes32"
        },
        {
          "indexed": true,
          "internalType": "bytes32",
          "name": "newAdminRole",
          "type": "bytes32"
        }
      ],
      "name": "RoleAdminChanged",
      "type": "event"
    },
    {
      "anonymous": false,
      "inputs": [
        {
          "indexed": true,
          "internalType": "bytes32",
          "name": "role",
          "type": "bytes32"
        },
        {
          "indexed": true,
          "internalType": "address",
          "name": "account",
          "type": "address"
        },
        {
          "indexed": true,
          "internalType": "address",
          "name": "sender",
          "type": "address"
        }
      ],
      "name": "RoleGranted",
      "type": "event"
    },
    {
      "anonymous": false,
      "inputs": [
        {
          "indexed": true,
          "internalType": "bytes32",
          "name": "role",
          "type": "bytes32"
        },
        {
          "indexed": true,
          "internalType": "address",
          "name": "account",
          "type": "address"
        },
        {
          "indexed": true,
          "internalType": "address",
          "name": "sender",
          "type": "address"
        }
      ],
      "name": "RoleRevoked",
      "type": "event"
    },
    {
      "anonymous": false,
      "inputs": [
        {
          "indexed": true,
          "internalType": "uint256",
          "name": "num",
          "type": "uint256"
        }
      ],
      "name": "Stored",
      "type": "event"
    },
    {
      "anonymous": false,
      "inputs": [
        {
          "indexed": true,
          "internalType": "address",
          "name": "from",
          "type": "address"
        },
        {
          "indexed": true,
          "internalType": "address",
          "name": "to",
          "type": "address"
        },
        {
          "indexed": false,
          "internalType": "string",
          "name": "message",
          "type": "string"
        }
      ],
      "name": "ThankYou",
      "type": "event"
    },
    {
      "anonymous": false,
      "inputs": [
        {
          "indexed": true,
          "internalType": "address",
          "name": "implementation",
          "type": "address"
        }
      ],
      "name": "Upgraded",
      "type": "event"
    },
    {
      "inputs": [],
      "name": "DEFAULT_ADMIN_ROLE",
      "outputs": [
        {
          "internalType": "bytes32",
          "name": "",
          "type": "bytes32"
        }
      ],
      "stateMutability": "view",
      "type": "function"
    },
    {
      "inputs": [],
      "name": "UPGRADE_ADMIN_ROLE",
      "outputs": [
        {
          "internalType": "bytes32",
          "name": "",
          "type": "bytes32"
        }
      ],
      "stateMutability": "view",
      "type": "function"
    },
    {
      "inputs": [],
      "name": "UPGRADE_INTERFACE_VERSION",
      "outputs": [
        {
          "internalType": "string",
          "name": "",
          "type": "string"
        }
      ],
      "stateMutability": "view",
      "type": "function"
    },
    {
      "inputs": [
        {
          "internalType": "bytes32",
          "name": "role",
          "type": "bytes32"
        }
      ],
      "name": "getRoleAdmin",
      "outputs": [
        {
          "internalType": "bytes32",
          "name": "",
          "type": "bytes32"
        }
      ],
      "stateMutability": "view",
      "type": "function"
    },
    {
      "inputs": [
        {
          "internalType": "bytes32",
          "name": "role",
          "type": "bytes32"
        },
        {
          "internalType": "uint256",
          "name": "index",
          "type": "uint256"
        }
      ],
      "name": "getRoleMember",
      "outputs": [
        {
          "internalType": "address",
          "name": "",
          "type": "address"
        }
      ],
      "stateMutability": "view",
      "type": "function"
    },
    {
      "inputs": [
        {
          "internalType": "bytes32",
          "name": "role",
          "type": "bytes32"
        }
      ],
      "name": "getRoleMemberCount",
      "outputs": [
        {
          "internalType": "uint256",
          "name": "",
          "type": "uint256"
        }
      ],
      "stateMutability": "view",
      "type": "function"
    },
    {
      "inputs": [
        {
          "internalType": "bytes32",
          "name": "role",
          "type": "bytes32"
        },
        {
          "internalType": "address",
          "name": "account",
          "type": "address"
        }
      ],
      "name": "grantRole",
      "outputs": [],
      "stateMutability": "nonpayable",
      "type": "function"
    },
    {
      "inputs": [
        {
          "internalType": "bytes32",
          "name": "role",
          "type": "bytes32"
        },
        {
          "internalType": "address",
          "name": "account",
          "type": "address"
        }
      ],
      "name": "hasRole",
      "outputs": [
        {
          "internalType": "bool",
          "name": "",
          "type": "bool"
        }
      ],
      "stateMutability": "view",
      "type": "function"
    },
    {
      "inputs": [
        {
          "internalType": "uint256",
          "name": "initialValue",
          "type": "uint256"
        }
      ],
      "name": "initialize",
      "outputs": [],
      "stateMutability": "nonpayable",
      "type": "function"
    },
    {
      "inputs": [],
      "name": "payMe",
      "outputs": [],
      "stateMutability": "payable",
      "type": "function"
    },
    {
      "inputs": [],
      "name": "proxiableUUID",
      "outputs": [
        {
          "internalType": "bytes32",
          "name": "",
          "type": "bytes32"
        }
      ],
      "stateMutability": "view",
      "type": "function"
    },
    {
      "inputs": [
        {
          "internalType": "bytes32",
          "name": "role",
          "type": "bytes32"
        },
        {
          "internalType": "address",
          "name": "callerConfirmation",
          "type": "address"
        }
      ],
      "name": "renounceRole",
      "outputs": [],
      "stateMutability": "nonpayable",
      "type": "function"
    },
    {
      "inputs": [],
      "name": "retrieve",
      "outputs": [
        {
          "internalType": "uint256",
          "name": "",
          "type": "uint256"
        }
      ],
      "stateMutability": "view",
      "type": "function"
    },
    {
      "inputs": [
        {
          "internalType": "bytes32",
          "name": "role",
          "type": "bytes32"
        },
        {
          "internalType": "address",
          "name": "account",
          "type": "address"
        }
      ],
      "name": "revokeRole",
      "outputs": [],
      "stateMutability": "nonpayable",
      "type": "function"
    },
    {
      "inputs": [
        {
          "internalType": "uint256",
          "name": "num",
          "type": "uint256"
        }
      ],
      "name": "store",
      "outputs": [],
      "stateMutability": "nonpayable",
      "type": "function"
    },
    {
      "inputs": [
        {
          "internalType": "bytes4",
          "name": "interfaceId",
          "type": "bytes4"
        }
      ],
      "name": "supportsInterface",
      "outputs": [
        {
          "internalType": "bool",
          "name": "",
          "type": "bool"
        }
      ],
      "stateMutability": "view",
      "type": "function"
    },
    {
      "inputs": [
        {
          "internalType": "address",
          "name": "newImplementation",
          "type": "address"
        },
        {
          "internalType": "bytes",
          "name": "data",
          "type": "bytes"
        }
      ],
      "name": "upgradeToAndCall",
      "outputs": [],
      "stateMutability": "payable",
      "type": "function"
    }
  ],
  "bytecode": "0x60a06040523060805234801561001457600080fd5b5060805161122461003e600039600081816108420152818161086b01526109d001526112246000f3fe6080604052600436106100fe5760003560e01c80638ffc212011610095578063ad3cb1cc11610064578063ad3cb1cc146102a6578063ca15c873146102e4578063d547741f14610304578063d997ccb314610324578063fe4b84df1461032c57600080fd5b80638ffc2120146102055780639010d07c1461023957806391d1485414610271578063a217fddf1461029157600080fd5b806336568abe116100d157806336568abe1461019d5780634f1ef286146101bd57806352d1902d146101d05780636057361d146101e557600080fd5b806301ffc9a714610103578063248a9ca3146101385780632e64cec1146101665780632f2ff15d1461017b575b600080fd5b34801561010f57600080fd5b5061012361011e366004610f30565b61034c565b60405190151581526020015b60405180910390f35b34801561014457600080fd5b50610158610153366004610f5a565b610377565b60405190815260200161012f565b34801561017257600080fd5b50600054610158565b34801561018757600080fd5b5061019b610196366004610f8f565b610399565b005b3480156101a957600080fd5b5061019b6101b8366004610f8f565b6103bb565b61019b6101cb366004610fd1565b6103f3565b3480156101dc57600080fd5b50610158610412565b3480156101f157600080fd5b5061019b610200366004610f5a565b61042f565b34801561021157600080fd5b506101587ff5e41b69db3149675767a8769b58cb4060b90e5e3d4bab8b1c958708ed9c925981565b34801561024557600080fd5b50610259610254366004611093565b61045f565b6040516001600160a01b03909116815260200161012f565b34801561027d57600080fd5b5061012361028c366004610f8f565b61048e565b34801561029d57600080fd5b50610158600081565b3480156102b257600080fd5b506102d7604051806040016040528060058152602001640352e302e360dc1b81525081565b60405161012f91906110d9565b3480156102f057600080fd5b506101586102ff366004610f5a565b6104c6565b34801561031057600080fd5b5061019b61031f366004610f8f565b6104f3565b61019b61050f565b34801561033857600080fd5b5061019b610347366004610f5a565b610621565b60006001600160e01b03198216635a05180f60e01b1480610371575061037182610774565b92915050565b60009081526000805160206111cf833981519152602052604090206001015490565b6103a282610377565b6103ab816107a9565b6103b583836107b6565b50505050565b6001600160a01b03811633146103e45760405163334bd91960e11b815260040160405180910390fd5b6103ee82826107fb565b505050565b6103fb610837565b610404826108de565b61040e8282610908565b5050565b600061041c6109c5565b506000805160206111af83398151915290565b600081815560405182917fc6d8c0af6d21f291e7c359603aa97e0ed500f04db6e983b9fce75a91c6b8da6b91a250565b600082815260008051602061118f8339815191526020819052604082206104869084610a0e565b949350505050565b60009182526000805160206111cf833981519152602090815260408084206001600160a01b0393909316845291905290205460ff1690565b600081815260008051602061118f8339815191526020819052604082206104ec90610a1a565b9392505050565b6104fc82610377565b610505816107a9565b6103b583836107fb565b600061051b818061045f565b6001600160a01b03163460405160006040518083038185875af1925050503d8060008114610565576040519150601f19603f3d011682016040523d82523d6000602084013e61056a565b606091505b50509050806105b75760405162461bcd60e51b81526020600482015260146024820152734661696c656420746f2073656e64206d6f6e657960601b60448201526064015b60405180910390fd5b336105c360008061045f565b6001600160a01b03167f7c3676b72a389bbe134f4d71be959e22331d009bfeb2c1d01cc7d97d97d70507604051610616906020808252600890820152675468616e6b73212160c01b604082015260600190565b60405180910390a350565b7ff0c57e16840df040f15088dc2f81fe391c3923bec73e23a9662efc9c229c6a008054600160401b810460ff16159067ffffffffffffffff166000811580156106675750825b905060008267ffffffffffffffff1660011480156106845750303b155b905081158015610692575080155b156106b05760405163f92ee8a960e01b815260040160405180910390fd5b845467ffffffffffffffff1916600117855583156106da57845460ff60401b1916600160401b1785555b6106e2610a24565b6106ea610a24565b6106f56000336107b6565b506107207ff5e41b69db3149675767a8769b58cb4060b90e5e3d4bab8b1c958708ed9c9259336107b6565b506000869055831561076c57845460ff60401b19168555604051600181527fc7f505b2f371ae2175ee4913f4499e1f2633a7b5936321eed1cdaeb6115181d29060200160405180910390a15b505050505050565b60006001600160e01b03198216637965db0b60e01b148061037157506301ffc9a760e01b6001600160e01b0319831614610371565b6107b38133610a2c565b50565b600060008051602061118f833981519152816107d28585610a65565b905080156104865760008581526020839052604090206107f29085610b0a565b50949350505050565b600060008051602061118f833981519152816108178585610b1f565b905080156104865760008581526020839052604090206107f29085610b9b565b306001600160a01b037f00000000000000000000000000000000000000000000000000000000000000001614806108be57507f00000000000000000000000000000000000000000000000000000000000000006001600160a01b03166108b26000805160206111af833981519152546001600160a01b031690565b6001600160a01b031614155b156108dc5760405163703e46dd60e11b815260040160405180910390fd5b565b7ff5e41b69db3149675767a8769b58cb4060b90e5e3d4bab8b1c958708ed9c925961040e816107a9565b816001600160a01b03166352d1902d6040518163ffffffff1660e01b8152600401602060405180830381865afa925050508015610962575060408051601f3d908101601f1916820190925261095f9181019061110c565b60015b61098a57604051634c9c8ce360e01b81526001600160a01b03831660048201526024016105ae565b6000805160206111af83398151915281146109bb57604051632a87526960e21b8152600481018290526024016105ae565b6103ee8383610bb0565b306001600160a01b037f000000000000000000000000000000000000000000000000000000000000000016146108dc5760405163703e46dd60e11b815260040160405180910390fd5b60006104ec8383610c06565b6000610371825490565b6108dc610c30565b610a36828261048e565b61040e5760405163e2517d3f60e01b81526001600160a01b0382166004820152602481018390526044016105ae565b60006000805160206111cf833981519152610a80848461048e565b610b00576000848152602082815260408083206001600160a01b03871684529091529020805460ff19166001179055610ab63390565b6001600160a01b0316836001600160a01b0316857f2f8788117e7eff1d82e926ec794901d17c78024a50270940304540a733656f0d60405160405180910390a46001915050610371565b6000915050610371565b60006104ec836001600160a01b038416610c79565b60006000805160206111cf833981519152610b3a848461048e565b15610b00576000848152602082815260408083206001600160a01b0387168085529252808320805460ff1916905551339287917ff6391f5c32d9c69d2a47ea670b442974b53935d1edc7fd64eb21e047a839171b9190a46001915050610371565b60006104ec836001600160a01b038416610cc8565b610bb982610db1565b6040516001600160a01b038316907fbc7cd75a20ee27fd9adebab32041f755214dbc6bffa90cc0225b39da2e5c2d3b90600090a2805115610bfe576103ee8282610e16565b61040e610e8c565b6000826000018281548110610c1d57610c1d611125565b9060005260206000200154905092915050565b7ff0c57e16840df040f15088dc2f81fe391c3923bec73e23a9662efc9c229c6a0054600160401b900460ff166108dc57604051631afcd79f60e31b815260040160405180910390fd5b6000818152600183016020526040812054610cc057508154600181810184556000848152602080822090930184905584548482528286019093526040902091909155610371565b506000610371565b60008181526001830160205260408120548015610b00576000610cec60018361113b565b8554909150600090610d009060019061113b565b9050808214610d65576000866000018281548110610d2057610d20611125565b9060005260206000200154905080876000018481548110610d4357610d43611125565b6000918252602080832090910192909255918252600188019052604090208390555b8554869080610d7657610d7661115c565b600190038181906000526020600020016000905590558560010160008681526020019081526020016000206000905560019350505050610371565b806001600160a01b03163b600003610de757604051634c9c8ce360e01b81526001600160a01b03821660048201526024016105ae565b6000805160206111af83398151915280546001600160a01b0319166001600160a01b0392909216919091179055565b6060600080846001600160a01b031684604051610e339190611172565b600060405180830381855af49150503d8060008114610e6e576040519150601f19603f3d011682016040523d82523d6000602084013e610e73565b606091505b5091509150610e83858383610eab565b95945050505050565b34156108dc5760405163b398979f60e01b815260040160405180910390fd5b606082610ec057610ebb82610f07565b6104ec565b8151158015610ed757506001600160a01b0384163b155b15610f0057604051639996b31560e01b81526001600160a01b03851660048201526024016105ae565b5092915050565b805115610f175780518082602001fd5b604051630a12f52160e11b815260040160405180910390fd5b600060208284031215610f4257600080fd5b81356001600160e01b0319811681146104ec57600080fd5b600060208284031215610f6c57600080fd5b5035919050565b80356001600160a01b0381168114610f8a57600080fd5b919050565b60008060408385031215610fa257600080fd5b82359150610fb260208401610f73565b90509250929050565b634e487b7160e01b600052604160045260246000fd5b60008060408385031215610fe457600080fd5b610fed83610f73565b9150602083013567ffffffffffffffff8082111561100a57600080fd5b818501915085601f83011261101e57600080fd5b81358181111561103057611030610fbb565b604051601f8201601f19908116603f0116810190838211818310171561105857611058610fbb565b8160405282815288602084870101111561107157600080fd5b8260208601602083013760006020848301015280955050505050509250929050565b600080604083850312156110a657600080fd5b50508035926020909101359150565b60005b838110156110d05781810151838201526020016110b8565b50506000910152565b60208152600082518060208401526110f88160408501602087016110b5565b601f01601f19169190910160400192915050565b60006020828403121561111e57600080fd5b5051919050565b634e487b7160e01b600052603260045260246000fd5b8181038181111561037157634e487b7160e01b600052601160045260246000fd5b634e487b7160e01b600052603160045260246000fd5b600082516111848184602087016110b5565b919091019291505056fec1f6fe24621ce81ec5827caf0253cadb74709b061630e6b55e82371705932000360894a13ba1a3210667c828492db98dca3e2076cc3735a920a3ca505d382bbc02dd7bc7dec4dceedda775e58dd541e08a116c6c53815c0bd028192f7b626800a2646970667358221220ba508d6b2a7c94d212425d8a2429e1d658bb3139a73a23cce928fc1806e19b7064736f6c63430008140033",
  "linkReferences": {},
  "deployedLinkReferences": {}
}